{
  "_format": "hh-sol-artifact-1",
  "contractName": "socialdapp",
  "sourceName": "contracts/socialdapp.sol",
  "abi": [
    {
      "inputs": [
        {
          "internalType": "string",
          "name": "_cid",
          "type": "string"
        },
        {
          "internalType": "string",
          "name": "_des",
          "type": "string"
        }
      ],
      "name": "addImages",
      "outputs": [],
      "stateMutability": "nonpayable",
      "type": "function"
    },
    {
      "inputs": [
        {
          "internalType": "uint256",
          "name": "_id",
          "type": "uint256"
        }
      ],
      "name": "getTips",
      "outputs": [],
      "stateMutability": "payable",
      "type": "function"
    },
    {
      "inputs": [
        {
          "internalType": "uint256",
          "name": "",
          "type": "uint256"
        }
      ],
      "name": "images",
      "outputs": [
        {
          "internalType": "uint256",
          "name": "id",
          "type": "uint256"
        },
        {
          "internalType": "string",
          "name": "cid",
          "type": "string"
        },
        {
          "internalType": "string",
          "name": "des",
          "type": "string"
        },
        {
          "internalType": "address",
          "name": "author",
          "type": "address"
        },
        {
          "internalType": "uint256",
          "name": "tip",
          "type": "uint256"
        }
      ],
      "stateMutability": "view",
      "type": "function"
    },
    {
      "inputs": [],
      "name": "imgCount",
      "outputs": [
        {
          "internalType": "uint256",
          "name": "",
          "type": "uint256"
        }
      ],
      "stateMutability": "view",
      "type": "function"
    }
  ],
  "bytecode": "0x60806040526000805534801561001457600080fd5b50610750806100246000396000f3fe60806040526004361061003f5760003560e01c8063036a3082146100445780638485648214610066578063c88261d5146100a0578063ed99bccc146100b3575b600080fd5b34801561005057600080fd5b5061006461005f366004610590565b6100d7565b005b34801561007257600080fd5b506100866100813660046105f4565b610243565b60405161009795949392919061065a565b60405180910390f35b6100646100ae3660046105f4565b61038b565b3480156100bf57600080fd5b506100c960005481565b604051908152602001610097565b6100e2600054610401565b600082511161012e5760405162461bcd60e51b815260206004820152601360248201527216995c9bc81a185cda081b9bdd081d985b1a59606a1b60448201526064015b60405180910390fd5b60008151116101785760405162461bcd60e51b81526020600482015260166024820152752737ba3434b7339034b7103232b9b1b934b83a34b7b760511b6044820152606401610125565b610183600054610401565b600160008082825461019591906106a3565b90915550506040805160a081018252600080548083526020808401878152848601879052336060860152608085018490529183526001808252949092208351815590518051939491936101f09392850192919091019061046a565b506040820151805161020c91600284019160209091019061046a565b5060608201516003820180546001600160a01b0319166001600160a01b039092169190911790556080909101516004909101555050565b600160208190526000918252604090912080549181018054610264906106c9565b80601f0160208091040260200160405190810160405280929190818152602001828054610290906106c9565b80156102dd5780601f106102b2576101008083540402835291602001916102dd565b820191906000526020600020905b8154815290600101906020018083116102c057829003601f168201915b5050505050908060020180546102f2906106c9565b80601f016020809104026020016040519081016040528092919081815260200182805461031e906106c9565b801561036b5780601f106103405761010080835404028352916020019161036b565b820191906000526020600020905b81548152906001019060200180831161034e57829003601f168201915b50505050600383015460049093015491926001600160a01b031691905085565b6000818152600160205260408082206003015490516001600160a01b039091169182913480156108fc0292909190818181858888f193505050501580156103d6573d6000803e3d6000fd5b50600082815260016020526040812060040180543492906103f89084906106a3565b90915550505050565b6104468160405160240161041791815260200190565b60408051601f198184030181529190526020810180516001600160e01b031663f5b1bba960e01b179052610449565b50565b80516a636f6e736f6c652e6c6f67602083016000808483855afa5050505050565b828054610476906106c9565b90600052602060002090601f01602090048101928261049857600085556104de565b82601f106104b157805160ff19168380011785556104de565b828001600101855582156104de579182015b828111156104de5782518255916020019190600101906104c3565b506104ea9291506104ee565b5090565b5b808211156104ea57600081556001016104ef565b600082601f83011261051457600080fd5b813567ffffffffffffffff8082111561052f5761052f610704565b604051601f8301601f19908116603f0116810190828211818310171561055757610557610704565b8160405283815286602085880101111561057057600080fd5b836020870160208301376000602085830101528094505050505092915050565b600080604083850312156105a357600080fd5b823567ffffffffffffffff808211156105bb57600080fd5b6105c786838701610503565b935060208501359150808211156105dd57600080fd5b506105ea85828601610503565b9150509250929050565b60006020828403121561060657600080fd5b5035919050565b6000815180845260005b8181101561063357602081850181015186830182015201610617565b81811115610645576000602083870101525b50601f01601f19169290920160200192915050565b85815260a06020820152600061067360a083018761060d565b8281036040840152610685818761060d565b6001600160a01b039590951660608401525050608001529392505050565b600082198211156106c457634e487b7160e01b600052601160045260246000fd5b500190565b600181811c908216806106dd57607f821691505b602082108114156106fe57634e487b7160e01b600052602260045260246000fd5b50919050565b634e487b7160e01b600052604160045260246000fdfea264697066735822122014d57a20be63ec900372cf09f27b6c177fbb34720bdd1722eff304ec487d57b164736f6c63430008070033",
  "linkReferences": {},
  "deployedLinkReferences": {}
}